{
  "_format": "hh-sol-artifact-1",
  "contractName": "SpacePool",
  "sourceName": "contracts/spacepool/SpacePool.sol",
  "abi": [
    {
      "inputs": [
        {
          "internalType": "address",
          "name": "_liquidityToken",
          "type": "address"
        }
      ],
      "stateMutability": "nonpayable",
      "type": "constructor"
    },
    {
      "anonymous": false,
      "inputs": [
        {
          "indexed": true,
          "internalType": "address",
          "name": "liquidityProvider",
          "type": "address"
        },
        {
          "indexed": false,
          "internalType": "uint256",
          "name": "amount",
          "type": "uint256"
        },
        {
          "indexed": false,
          "internalType": "uint256",
          "name": "lpNftId",
          "type": "uint256"
        }
      ],
      "name": "AddedLiquidity",
      "type": "event"
    },
    {
      "anonymous": false,
      "inputs": [
        {
          "indexed": true,
          "internalType": "address",
          "name": "account",
          "type": "address"
        },
        {
          "indexed": true,
          "internalType": "address",
          "name": "operator",
          "type": "address"
        },
        {
          "indexed": false,
          "internalType": "bool",
          "name": "approved",
          "type": "bool"
        }
      ],
      "name": "ApprovalForAll",
      "type": "event"
    },
    {
      "anonymous": false,
      "inputs": [
        {
          "indexed": true,
          "internalType": "address",
          "name": "liquidityProvider",
          "type": "address"
        },
        {
          "indexed": true,
          "internalType": "uint256",
          "name": "amount",
          "type": "uint256"
        }
      ],
      "name": "Claim",
      "type": "event"
    },
    {
      "anonymous": false,
      "inputs": [
        {
          "indexed": true,
          "internalType": "uint256",
          "name": "epoch",
          "type": "uint256"
        },
        {
          "indexed": true,
          "internalType": "address",
          "name": "to",
          "type": "address"
        },
        {
          "indexed": true,
          "internalType": "uint256",
          "name": "amount",
          "type": "uint256"
        }
      ],
      "name": "ExtractLiquidity",
      "type": "event"
    },
    {
      "anonymous": false,
      "inputs": [
        {
          "indexed": true,
          "internalType": "uint256",
          "name": "newRoI",
          "type": "uint256"
        },
        {
          "indexed": true,
          "internalType": "address",
          "name": "operator",
          "type": "address"
        }
      ],
      "name": "NewRoIRate",
      "type": "event"
    },
    {
      "anonymous": false,
      "inputs": [
        {
          "indexed": true,
          "internalType": "bytes32",
          "name": "role",
          "type": "bytes32"
        },
        {
          "indexed": true,
          "internalType": "bytes32",
          "name": "previousAdminRole",
          "type": "bytes32"
        },
        {
          "indexed": true,
          "internalType": "bytes32",
          "name": "newAdminRole",
          "type": "bytes32"
        }
      ],
      "name": "RoleAdminChanged",
      "type": "event"
    },
    {
      "anonymous": false,
      "inputs": [
        {
          "indexed": true,
          "internalType": "bytes32",
          "name": "role",
          "type": "bytes32"
        },
        {
          "indexed": true,
          "internalType": "address",
          "name": "account",
          "type": "address"
        },
        {
          "indexed": true,
          "internalType": "address",
          "name": "sender",
          "type": "address"
        }
      ],
      "name": "RoleGranted",
      "type": "event"
    },
    {
      "anonymous": false,
      "inputs": [
        {
          "indexed": true,
          "internalType": "bytes32",
          "name": "role",
          "type": "bytes32"
        },
        {
          "indexed": true,
          "internalType": "address",
          "name": "account",
          "type": "address"
        },
        {
          "indexed": true,
          "internalType": "address",
          "name": "sender",
          "type": "address"
        }
      ],
      "name": "RoleRevoked",
      "type": "event"
    },
    {
      "anonymous": false,
      "inputs": [
        {
          "indexed": true,
          "internalType": "address",
          "name": "operator",
          "type": "address"
        },
        {
          "indexed": true,
          "internalType": "address",
          "name": "from",
          "type": "address"
        },
        {
          "indexed": true,
          "internalType": "address",
          "name": "to",
          "type": "address"
        },
        {
          "indexed": false,
          "internalType": "uint256[]",
          "name": "ids",
          "type": "uint256[]"
        },
        {
          "indexed": false,
          "internalType": "uint256[]",
          "name": "values",
          "type": "uint256[]"
        }
      ],
      "name": "TransferBatch",
      "type": "event"
    },
    {
      "anonymous": false,
      "inputs": [
        {
          "indexed": true,
          "internalType": "address",
          "name": "operator",
          "type": "address"
        },
        {
          "indexed": true,
          "internalType": "address",
          "name": "from",
          "type": "address"
        },
        {
          "indexed": true,
          "internalType": "address",
          "name": "to",
          "type": "address"
        },
        {
          "indexed": false,
          "internalType": "uint256",
          "name": "id",
          "type": "uint256"
        },
        {
          "indexed": false,
          "internalType": "uint256",
          "name": "value",
          "type": "uint256"
        }
      ],
      "name": "TransferSingle",
      "type": "event"
    },
    {
      "anonymous": false,
      "inputs": [
        {
          "indexed": false,
          "internalType": "string",
          "name": "value",
          "type": "string"
        },
        {
          "indexed": true,
          "internalType": "uint256",
          "name": "id",
          "type": "uint256"
        }
      ],
      "name": "URI",
      "type": "event"
    },
    {
      "inputs": [],
      "name": "DEFAULT_ADMIN_ROLE",
      "outputs": [
        {
          "internalType": "bytes32",
          "name": "",
          "type": "bytes32"
        }
      ],
      "stateMutability": "view",
      "type": "function"
    },
    {
      "inputs": [],
      "name": "LIQUIDITY_OPERATOR",
      "outputs": [
        {
          "internalType": "bytes32",
          "name": "",
          "type": "bytes32"
        }
      ],
      "stateMutability": "view",
      "type": "function"
    },
    {
      "inputs": [
        {
          "internalType": "uint256",
          "name": "amount",
          "type": "uint256"
        }
      ],
      "name": "addLiquidity",
      "outputs": [],
      "stateMutability": "nonpayable",
      "type": "function"
    },
    {
      "inputs": [
        {
          "internalType": "address",
          "name": "operator",
          "type": "address"
        }
      ],
      "name": "addLiquidityOperator",
      "outputs": [],
      "stateMutability": "nonpayable",
      "type": "function"
    },
    {
      "inputs": [
        {
          "internalType": "address",
          "name": "account",
          "type": "address"
        },
        {
          "internalType": "uint256",
          "name": "id",
          "type": "uint256"
        }
      ],
      "name": "balanceOf",
      "outputs": [
        {
          "internalType": "uint256",
          "name": "",
          "type": "uint256"
        }
      ],
      "stateMutability": "view",
      "type": "function"
    },
    {
      "inputs": [
        {
          "internalType": "address[]",
          "name": "accounts",
          "type": "address[]"
        },
        {
          "internalType": "uint256[]",
          "name": "ids",
          "type": "uint256[]"
        }
      ],
      "name": "balanceOfBatch",
      "outputs": [
        {
          "internalType": "uint256[]",
          "name": "",
          "type": "uint256[]"
        }
      ],
      "stateMutability": "view",
      "type": "function"
    },
    {
      "inputs": [
        {
          "internalType": "address",
          "name": "to",
          "type": "address"
        },
        {
          "internalType": "uint256",
          "name": "amount",
          "type": "uint256"
        }
      ],
      "name": "extractLiquidity",
      "outputs": [],
      "stateMutability": "nonpayable",
      "type": "function"
    },
    {
      "inputs": [],
      "name": "getCurrentEpoch",
      "outputs": [
        {
          "internalType": "uint256",
          "name": "",
          "type": "uint256"
        }
      ],
      "stateMutability": "view",
      "type": "function"
    },
    {
      "inputs": [],
      "name": "getMyLiquidity",
      "outputs": [
        {
          "internalType": "uint256",
          "name": "",
          "type": "uint256"
        }
      ],
      "stateMutability": "view",
      "type": "function"
    },
    {
      "inputs": [],
      "name": "getMyPositions",
      "outputs": [
        {
          "components": [
            {
              "internalType": "uint256",
              "name": "timestamp",
              "type": "uint256"
            },
            {
              "internalType": "uint256",
              "name": "amount",
              "type": "uint256"
            },
            {
              "internalType": "uint256",
              "name": "poolEpoch",
              "type": "uint256"
            }
          ],
          "internalType": "struct SpacePool.LPPosition[]",
          "name": "",
          "type": "tuple[]"
        }
      ],
      "stateMutability": "view",
      "type": "function"
    },
    {
      "inputs": [
        {
          "internalType": "bytes32",
          "name": "role",
          "type": "bytes32"
        }
      ],
      "name": "getRoleAdmin",
      "outputs": [
        {
          "internalType": "bytes32",
          "name": "",
          "type": "bytes32"
        }
      ],
      "stateMutability": "view",
      "type": "function"
    },
    {
      "inputs": [
        {
          "internalType": "bytes32",
          "name": "role",
          "type": "bytes32"
        },
        {
          "internalType": "address",
          "name": "account",
          "type": "address"
        }
      ],
      "name": "grantRole",
      "outputs": [],
      "stateMutability": "nonpayable",
      "type": "function"
    },
    {
      "inputs": [
        {
          "internalType": "bytes32",
          "name": "role",
          "type": "bytes32"
        },
        {
          "internalType": "address",
          "name": "account",
          "type": "address"
        }
      ],
      "name": "hasRole",
      "outputs": [
        {
          "internalType": "bool",
          "name": "",
          "type": "bool"
        }
      ],
      "stateMutability": "view",
      "type": "function"
    },
    {
      "inputs": [
        {
          "internalType": "address",
          "name": "account",
          "type": "address"
        },
        {
          "internalType": "address",
          "name": "operator",
          "type": "address"
        }
      ],
      "name": "isApprovedForAll",
      "outputs": [
        {
          "internalType": "bool",
          "name": "",
          "type": "bool"
        }
      ],
      "stateMutability": "view",
      "type": "function"
    },
    {
      "inputs": [
        {
          "internalType": "uint256",
          "name": "_id",
          "type": "uint256"
        }
      ],
      "name": "isLpnft",
      "outputs": [
        {
          "internalType": "bool",
          "name": "",
          "type": "bool"
        }
      ],
      "stateMutability": "pure",
      "type": "function"
    },
    {
      "inputs": [],
      "name": "lpnftNonce",
      "outputs": [
        {
          "internalType": "uint256",
          "name": "",
          "type": "uint256"
        }
      ],
      "stateMutability": "view",
      "type": "function"
    },
    {
      "inputs": [
        {
          "internalType": "bytes32",
          "name": "role",
          "type": "bytes32"
        },
        {
          "internalType": "address",
          "name": "account",
          "type": "address"
        }
      ],
      "name": "renounceRole",
      "outputs": [],
      "stateMutability": "nonpayable",
      "type": "function"
    },
    {
      "inputs": [
        {
          "internalType": "bytes32",
          "name": "role",
          "type": "bytes32"
        },
        {
          "internalType": "address",
          "name": "account",
          "type": "address"
        }
      ],
      "name": "revokeRole",
      "outputs": [],
      "stateMutability": "nonpayable",
      "type": "function"
    },
    {
      "inputs": [
        {
          "internalType": "address",
          "name": "from",
          "type": "address"
        },
        {
          "internalType": "address",
          "name": "to",
          "type": "address"
        },
        {
          "internalType": "uint256[]",
          "name": "ids",
          "type": "uint256[]"
        },
        {
          "internalType": "uint256[]",
          "name": "amounts",
          "type": "uint256[]"
        },
        {
          "internalType": "bytes",
          "name": "data",
          "type": "bytes"
        }
      ],
      "name": "safeBatchTransferFrom",
      "outputs": [],
      "stateMutability": "nonpayable",
      "type": "function"
    },
    {
      "inputs": [
        {
          "internalType": "address",
          "name": "from",
          "type": "address"
        },
        {
          "internalType": "address",
          "name": "to",
          "type": "address"
        },
        {
          "internalType": "uint256",
          "name": "id",
          "type": "uint256"
        },
        {
          "internalType": "uint256",
          "name": "amount",
          "type": "uint256"
        },
        {
          "internalType": "bytes",
          "name": "data",
          "type": "bytes"
        }
      ],
      "name": "safeTransferFrom",
      "outputs": [],
      "stateMutability": "nonpayable",
      "type": "function"
    },
    {
      "inputs": [
        {
          "internalType": "address",
          "name": "operator",
          "type": "address"
        },
        {
          "internalType": "bool",
          "name": "approved",
          "type": "bool"
        }
      ],
      "name": "setApprovalForAll",
      "outputs": [],
      "stateMutability": "nonpayable",
      "type": "function"
    },
    {
      "inputs": [
        {
          "internalType": "uint256",
          "name": "_roiRate",
          "type": "uint256"
        }
      ],
      "name": "setRoIRate",
      "outputs": [],
      "stateMutability": "nonpayable",
      "type": "function"
    },
    {
      "inputs": [],
      "name": "speNonce",
      "outputs": [
        {
          "internalType": "uint256",
          "name": "",
          "type": "uint256"
        }
      ],
      "stateMutability": "view",
      "type": "function"
    },
    {
      "inputs": [
        {
          "internalType": "bytes4",
          "name": "interfaceId",
          "type": "bytes4"
        }
      ],
      "name": "supportsInterface",
      "outputs": [
        {
          "internalType": "bool",
          "name": "",
          "type": "bool"
        }
      ],
      "stateMutability": "view",
      "type": "function"
    },
    {
      "inputs": [
        {
          "internalType": "uint256",
          "name": "",
          "type": "uint256"
        }
      ],
      "name": "uri",
      "outputs": [
        {
          "internalType": "string",
          "name": "",
          "type": "string"
        }
      ],
      "stateMutability": "view",
      "type": "function"
    }
  ],
  "bytecode": "0x60806040523480156200001157600080fd5b506040516200253e3803806200253e8339810160408190526200003491620001e6565b6040805160208101909152600081526200004e816200007e565b50600480546001600160a01b0319166001600160a01b0383161790556200007760003362000097565b5062000253565b80516200009390600390602084019062000140565b5050565b6000828152602081815260408083206001600160a01b038516845290915290205462000093908390839060ff1662000093576000828152602081815260408083206001600160a01b03851684529091529020805460ff19166001179055620000fc3390565b6001600160a01b0316816001600160a01b0316837f2f8788117e7eff1d82e926ec794901d17c78024a50270940304540a733656f0d60405160405180910390a45050565b8280546200014e9062000216565b90600052602060002090601f016020900481019282620001725760008555620001bd565b82601f106200018d57805160ff1916838001178555620001bd565b82800160010185558215620001bd579182015b82811115620001bd578251825591602001919060010190620001a0565b50620001cb929150620001cf565b5090565b5b80821115620001cb5760008155600101620001d0565b600060208284031215620001f8578081fd5b81516001600160a01b03811681146200020f578182fd5b9392505050565b600181811c908216806200022b57607f821691505b602082108114156200024d57634e487b7160e01b600052602260045260246000fd5b50919050565b6122db80620002636000396000f3fe608060405234801561001057600080fd5b50600436106101725760003560e01c806355639750116100de578063b97dd9e211610097578063d547741f11610071578063d547741f1461034f578063e985e9c514610362578063f242432a1461039e578063f459c18d146103b157600080fd5b8063b97dd9e21461031f578063c54025a514610327578063d0b2d32b1461033a57600080fd5b806355639750146102af5780637c397e24146102c257806391d14854146102dc578063a217fddf146102ef578063a22cb465146102f7578063b6e2a5f61461030a57600080fd5b806336568abe1161013057806336568abe1461022b57806337e3806a1461023e5780634e1273f4146102605780634e65930e14610280578063516186191461029357806351c6590a1461029c57600080fd5b8062fdd58e1461017757806301ffc9a71461019d5780630e89341c146101c0578063248a9ca3146101e05780632eb2c2d6146102035780632f2ff15d14610218575b600080fd5b61018a610185366004611bbb565b6103ba565b6040519081526020015b60405180910390f35b6101b06101ab366004611d05565b610453565b6040519015158152602001610194565b6101d36101ce366004611ccb565b610464565b6040516101949190611f6d565b61018a6101ee366004611ccb565b60009081526020819052604090206001015490565b610216610211366004611a7c565b6104f8565b005b610216610226366004611ce3565b6107c2565b610216610239366004611ce3565b6107ed565b600554600090815260076020908152604080832033845290915290205461018a565b61027361026e366004611be4565b61086b565b6040516101949190611f2c565b61021661028e366004611bbb565b6109cd565b61018a60055481565b6102166102aa366004611ccb565b610be5565b6102166102bd366004611a30565b610d7a565b6101b06102d0366004611ccb565b600160ff1b9081161490565b6101b06102ea366004611ce3565b610dfa565b61018a600081565b610216610305366004611b85565b610e23565b610312610efa565b6040516101949190611ed3565b60055461018a565b610216610335366004611ccb565b610f82565b61018a60008051602061228683398151915281565b61021661035d366004611ce3565b61101b565b6101b0610370366004611a4a565b6001600160a01b03918216600090815260026020908152604080832093909416825291909152205460ff1690565b6102166103ac366004611b22565b611041565b61018a60065481565b60006001600160a01b03831661042b5760405162461bcd60e51b815260206004820152602b60248201527f455243313135353a2062616c616e636520717565727920666f7220746865207a60448201526a65726f206164647265737360a81b60648201526084015b60405180910390fd5b5060009081526001602090815260408083206001600160a01b03949094168352929052205490565b600061045e826111f5565b92915050565b60606003805461047390612110565b80601f016020809104026020016040519081016040528092919081815260200182805461049f90612110565b80156104ec5780601f106104c1576101008083540402835291602001916104ec565b820191906000526020600020905b8154815290600101906020018083116104cf57829003601f168201915b50505050509050919050565b815183511461055a5760405162461bcd60e51b815260206004820152602860248201527f455243313135353a2069647320616e6420616d6f756e7473206c656e677468206044820152670dad2e6dac2e8c6d60c31b6064820152608401610422565b6001600160a01b0384166105805760405162461bcd60e51b815260040161042290611fc8565b6001600160a01b03851633148061059c575061059c8533610370565b6106035760405162461bcd60e51b815260206004820152603260248201527f455243313135353a207472616e736665722063616c6c6572206973206e6f74206044820152711bdddb995c881b9bdc88185c1c1c9bdd995960721b6064820152608401610422565b3360005b845181101561075457600085828151811061063257634e487b7160e01b600052603260045260246000fd5b60200260200101519050600085838151811061065e57634e487b7160e01b600052603260045260246000fd5b60209081029190910181015160008481526001835260408082206001600160a01b038e1683529093529190912054909150818110156106af5760405162461bcd60e51b81526004016104229061200d565b6106b982826120b2565b6001600085815260200190815260200160002060008c6001600160a01b03166001600160a01b0316815260200190815260200160002081905550816001600085815260200190815260200160002060008b6001600160a01b03166001600160a01b031681526020019081526020016000206000828254610739919061207b565b925050819055505050508061074d90612178565b9050610607565b50846001600160a01b0316866001600160a01b0316826001600160a01b03167f4a39dc06d4c0dbc64b70af90fd698a233a518aa5d07e595d983b8c0526c8f7fb87876040516107a4929190611f3f565b60405180910390a46107ba818787878787611235565b505050505050565b6000828152602081905260409020600101546107de81336113a0565b6107e88383611404565b505050565b6001600160a01b038116331461085d5760405162461bcd60e51b815260206004820152602f60248201527f416363657373436f6e74726f6c3a2063616e206f6e6c792072656e6f756e636560448201526e103937b632b9903337b91039b2b63360891b6064820152608401610422565b6108678282611488565b5050565b606081518351146108d05760405162461bcd60e51b815260206004820152602960248201527f455243313135353a206163636f756e747320616e6420696473206c656e677468604482015268040dad2e6dac2e8c6d60bb1b6064820152608401610422565b6000835167ffffffffffffffff8111156108fa57634e487b7160e01b600052604160045260246000fd5b604051908082528060200260200182016040528015610923578160200160208202803683370190505b50905060005b84518110156109c55761098a85828151811061095557634e487b7160e01b600052603260045260246000fd5b602002602001015185838151811061097d57634e487b7160e01b600052603260045260246000fd5b60200260200101516103ba565b8282815181106109aa57634e487b7160e01b600052603260045260246000fd5b60209081029190910101526109be81612178565b9050610929565b509392505050565b6109e560008051602061228683398151915233610dfa565b610a3c5760405162461bcd60e51b815260206004820152602260248201527f43616c6c6572206973206e6f742061206c6971756964697479206f706572617460448201526137b960f11b6064820152608401610422565b600480546040516370a0823160e01b8152309281019290925282916001600160a01b03909116906370a082319060240160206040518083038186803b158015610a8457600080fd5b505afa158015610a98573d6000803e3d6000fd5b505050506040513d601f19601f82011682018060405250810190610abc9190611d3d565b1015610b0a5760405162461bcd60e51b815260206004820152601d60248201527f5468657265206973206e6f7420656e6f756768206c69717569646974790000006044820152606401610422565b6004805460405163a9059cbb60e01b81526001600160a01b03858116938201939093526024810184905291169063a9059cbb90604401602060405180830381600087803b158015610b5a57600080fd5b505af1158015610b6e573d6000803e3d6000fd5b505050506040513d601f19601f82011682018060405250810190610b929190611caf565b5060055460405182916001600160a01b038516917f710737399baabb640c0a54e779d6d861945e6a2246a604ce28f0d068efa4351590600090a460058054906000610bdc83612178565b91905055505050565b600480546040516323b872dd60e01b81523392810192909252306024830152604482018390526001600160a01b0316906323b872dd90606401602060405180830381600087803b158015610c3857600080fd5b505af1158015610c4c573d6000803e3d6000fd5b505050506040513d601f19601f82011682018060405250810190610c709190611caf565b50600554600090815260076020908152604080832033845290915281208054839290610c9d90849061207b565b925050819055506000600160ff1b600660008154610cba90612178565b919050819055179050610cdf33826001604051806020016040528060008152506114ed565b3360008181526008602090815260408083208151606081018352428152808401888152600554828501908152835460018181018655948852959096209151600390950290910193845551908301559151600290910155517f23e65819fee433cde99868836d19dad84b8569b10a34bc82c501a1f94d72c2dd90610d6e9085908590918252602082015260400190565b60405180910390a25050565b610d85600033610dfa565b610ddf5760405162461bcd60e51b815260206004820152602560248201527f4f6e6c792061646d696e2063616e20616464206c6971756964697479206f70656044820152643930ba37b960d91b6064820152608401610422565b610df7600080516020612286833981519152826107c2565b50565b6000918252602082815260408084206001600160a01b0393909316845291905290205460ff1690565b336001600160a01b0383161415610e8e5760405162461bcd60e51b815260206004820152602960248201527f455243313135353a2073657474696e6720617070726f76616c20737461747573604482015268103337b91039b2b63360b91b6064820152608401610422565b3360008181526002602090815260408083206001600160a01b03871680855290835292819020805460ff191686151590811790915590519081529192917f17307eab39ab6107e8899845ad3d59bd9653f200f220920489ca2b5937696c31910160405180910390a35050565b336000908152600860209081526040808320805482518185028101850190935280835260609492939192909184015b82821015610f795783829060005260206000209060030201604051806060016040529081600082015481526020016001820154815260200160028201548152505081526020019060010190610f29565b50505050905090565b610f9a60008051602061228683398151915233610dfa565b610fe65760405162461bcd60e51b815260206004820152601b60248201527f43616c6c65722063616e206e6f742073657420526f49207261746500000000006044820152606401610422565b6009819055604051339082907f5e49daac8a4a0a1571ab185c6a94827d1a324aa3ac131e9edc56b3c65ec2b3a390600090a350565b60008281526020819052604090206001015461103781336113a0565b6107e88383611488565b6001600160a01b0384166110675760405162461bcd60e51b815260040161042290611fc8565b6001600160a01b03851633148061108357506110838533610370565b6110e15760405162461bcd60e51b815260206004820152602960248201527f455243313135353a2063616c6c6572206973206e6f74206f776e6572206e6f7260448201526808185c1c1c9bdd995960ba1b6064820152608401610422565b336111018187876110f1886115f0565b6110fa886115f0565b5050505050565b60008481526001602090815260408083206001600160a01b038a168452909152902054838110156111445760405162461bcd60e51b81526004016104229061200d565b61114e84826120b2565b60008681526001602090815260408083206001600160a01b038c8116855292528083209390935588168152908120805486929061118c90849061207b565b909155505060408051868152602081018690526001600160a01b03808916928a821692918616917fc3d58168c5ae7397731d063d5bbf3d657854427343f4c083240f7aacaa2d0f62910160405180910390a46111ec828888888888611649565b50505050505050565b60006001600160e01b03198216636cdb3d1360e11b148061122657506001600160e01b031982166303a24d0760e21b145b8061045e575061045e82611713565b6001600160a01b0384163b156107ba5760405163bc197c8160e01b81526001600160a01b0385169063bc197c81906112799089908990889088908890600401611e30565b602060405180830381600087803b15801561129357600080fd5b505af19250505080156112c3575060408051601f3d908101601f191682019092526112c091810190611d21565b60015b611370576112cf6121bf565b806308c379a0141561130957506112e46121d7565b806112ef575061130b565b8060405162461bcd60e51b81526004016104229190611f6d565b505b60405162461bcd60e51b815260206004820152603460248201527f455243313135353a207472616e7366657220746f206e6f6e20455243313135356044820152732932b1b2b4bb32b91034b6b83632b6b2b73a32b960611b6064820152608401610422565b6001600160e01b0319811663bc197c8160e01b146111ec5760405162461bcd60e51b815260040161042290611f80565b6113aa8282610dfa565b610867576113c2816001600160a01b03166014611748565b6113cd836020611748565b6040516020016113de929190611dbb565b60408051601f198184030181529082905262461bcd60e51b825261042291600401611f6d565b61140e8282610dfa565b610867576000828152602081815260408083206001600160a01b03851684529091529020805460ff191660011790556114443390565b6001600160a01b0316816001600160a01b0316837f2f8788117e7eff1d82e926ec794901d17c78024a50270940304540a733656f0d60405160405180910390a45050565b6114928282610dfa565b15610867576000828152602081815260408083206001600160a01b0385168085529252808320805460ff1916905551339285917ff6391f5c32d9c69d2a47ea670b442974b53935d1edc7fd64eb21e047a839171b9190a45050565b6001600160a01b03841661154d5760405162461bcd60e51b815260206004820152602160248201527f455243313135353a206d696e7420746f20746865207a65726f206164647265736044820152607360f81b6064820152608401610422565b3361155e816000876110f1886115f0565b60008481526001602090815260408083206001600160a01b03891684529091528120805485929061159090849061207b565b909155505060408051858152602081018590526001600160a01b0380881692600092918516917fc3d58168c5ae7397731d063d5bbf3d657854427343f4c083240f7aacaa2d0f62910160405180910390a46110fa81600087878787611649565b6040805160018082528183019092526060916000919060208083019080368337019050509050828160008151811061163857634e487b7160e01b600052603260045260246000fd5b602090810291909101015292915050565b6001600160a01b0384163b156107ba5760405163f23a6e6160e01b81526001600160a01b0385169063f23a6e619061168d9089908990889088908890600401611e8e565b602060405180830381600087803b1580156116a757600080fd5b505af19250505080156116d7575060408051601f3d908101601f191682019092526116d491810190611d21565b60015b6116e3576112cf6121bf565b6001600160e01b0319811663f23a6e6160e01b146111ec5760405162461bcd60e51b815260040161042290611f80565b60006001600160e01b03198216637965db0b60e01b148061045e57506301ffc9a760e01b6001600160e01b031983161461045e565b60606000611757836002612093565b61176290600261207b565b67ffffffffffffffff81111561178857634e487b7160e01b600052604160045260246000fd5b6040519080825280601f01601f1916602001820160405280156117b2576020820181803683370190505b509050600360fc1b816000815181106117db57634e487b7160e01b600052603260045260246000fd5b60200101906001600160f81b031916908160001a905350600f60fb1b8160018151811061181857634e487b7160e01b600052603260045260246000fd5b60200101906001600160f81b031916908160001a905350600061183c846002612093565b61184790600161207b565b90505b60018111156118db576f181899199a1a9b1b9c1cb0b131b232b360811b85600f166010811061188957634e487b7160e01b600052603260045260246000fd5b1a60f81b8282815181106118ad57634e487b7160e01b600052603260045260246000fd5b60200101906001600160f81b031916908160001a90535060049490941c936118d4816120f9565b905061184a565b50831561192a5760405162461bcd60e51b815260206004820181905260248201527f537472696e67733a20686578206c656e67746820696e73756666696369656e746044820152606401610422565b9392505050565b80356001600160a01b038116811461194857600080fd5b919050565b600082601f83011261195d578081fd5b8135602061196a82612057565b604051611977828261214b565b8381528281019150858301600585901b87018401881015611996578586fd5b855b858110156119b457813584529284019290840190600101611998565b5090979650505050505050565b600082601f8301126119d1578081fd5b813567ffffffffffffffff8111156119eb576119eb6121a9565b604051611a02601f8301601f19166020018261214b565b818152846020838601011115611a16578283fd5b816020850160208301379081016020019190915292915050565b600060208284031215611a41578081fd5b61192a82611931565b60008060408385031215611a5c578081fd5b611a6583611931565b9150611a7360208401611931565b90509250929050565b600080600080600060a08688031215611a93578081fd5b611a9c86611931565b9450611aaa60208701611931565b9350604086013567ffffffffffffffff80821115611ac6578283fd5b611ad289838a0161194d565b94506060880135915080821115611ae7578283fd5b611af389838a0161194d565b93506080880135915080821115611b08578283fd5b50611b15888289016119c1565b9150509295509295909350565b600080600080600060a08688031215611b39578081fd5b611b4286611931565b9450611b5060208701611931565b93506040860135925060608601359150608086013567ffffffffffffffff811115611b79578182fd5b611b15888289016119c1565b60008060408385031215611b97578182fd5b611ba083611931565b91506020830135611bb081612261565b809150509250929050565b60008060408385031215611bcd578182fd5b611bd683611931565b946020939093013593505050565b60008060408385031215611bf6578182fd5b823567ffffffffffffffff80821115611c0d578384fd5b818501915085601f830112611c20578384fd5b81356020611c2d82612057565b604051611c3a828261214b565b8381528281019150858301600585901b870184018b1015611c59578889fd5b8896505b84871015611c8257611c6e81611931565b835260019690960195918301918301611c5d565b5096505086013592505080821115611c98578283fd5b50611ca58582860161194d565b9150509250929050565b600060208284031215611cc0578081fd5b815161192a81612261565b600060208284031215611cdc578081fd5b5035919050565b60008060408385031215611cf5578182fd5b82359150611a7360208401611931565b600060208284031215611d16578081fd5b813561192a8161226f565b600060208284031215611d32578081fd5b815161192a8161226f565b600060208284031215611d4e578081fd5b5051919050565b6000815180845260208085019450808401835b83811015611d8457815187529582019590820190600101611d68565b509495945050505050565b60008151808452611da78160208601602086016120c9565b601f01601f19169290920160200192915050565b7f416363657373436f6e74726f6c3a206163636f756e7420000000000000000000815260008351611df38160178501602088016120c9565b7001034b99036b4b9b9b4b733903937b6329607d1b6017918401918201528351611e248160288401602088016120c9565b01602801949350505050565b6001600160a01b0386811682528516602082015260a060408201819052600090611e5c90830186611d55565b8281036060840152611e6e8186611d55565b90508281036080840152611e828185611d8f565b98975050505050505050565b6001600160a01b03868116825285166020820152604081018490526060810183905260a060808201819052600090611ec890830184611d8f565b979650505050505050565b602080825282518282018190526000919060409081850190868401855b82811015611f1f5781518051855286810151878601528501518585015260609093019290850190600101611ef0565b5091979650505050505050565b60208152600061192a6020830184611d55565b604081526000611f526040830185611d55565b8281036020840152611f648185611d55565b95945050505050565b60208152600061192a6020830184611d8f565b60208082526028908201527f455243313135353a204552433131353552656365697665722072656a656374656040820152676420746f6b656e7360c01b606082015260800190565b60208082526025908201527f455243313135353a207472616e7366657220746f20746865207a65726f206164604082015264647265737360d81b606082015260800190565b6020808252602a908201527f455243313135353a20696e73756666696369656e742062616c616e636520666f60408201526939103a3930b739b332b960b11b606082015260800190565b600067ffffffffffffffff821115612071576120716121a9565b5060051b60200190565b6000821982111561208e5761208e612193565b500190565b60008160001904831182151516156120ad576120ad612193565b500290565b6000828210156120c4576120c4612193565b500390565b60005b838110156120e45781810151838201526020016120cc565b838111156120f3576000848401525b50505050565b60008161210857612108612193565b506000190190565b600181811c9082168061212457607f821691505b6020821081141561214557634e487b7160e01b600052602260045260246000fd5b50919050565b601f8201601f1916810167ffffffffffffffff81118282101715612171576121716121a9565b6040525050565b600060001982141561218c5761218c612193565b5060010190565b634e487b7160e01b600052601160045260246000fd5b634e487b7160e01b600052604160045260246000fd5b600060033d11156121d457600481823e5160e01c5b90565b600060443d10156121e55790565b6040516003193d81016004833e81513d67ffffffffffffffff816024840111818411171561221557505050505090565b828501915081518181111561222d5750505050505090565b843d87010160208285010111156122475750505050505090565b6122566020828601018761214b565b509095945050505050565b8015158114610df757600080fd5b6001600160e01b031981168114610df757600080fdfed2b792797be26c4e7b8cb21f27f8d4d727ff3e541bf39ec2acc94c0fb5e9ced5a2646970667358221220af50bac2263a7a0904e6b3385edb3ea531bbb1f773485051f51d4623ba14c76064736f6c63430008040033",
  "linkReferences": {},
  "deployedLinkReferences": {}
}