{
  "_format": "hh-sol-artifact-1",
  "contractName": "Market",
  "sourceName": "contracts/marketplace/Market.sol",
  "abi": [
    {
      "inputs": [
        {
          "internalType": "address",
          "name": "_assetAddress",
          "type": "address"
        }
      ],
      "stateMutability": "nonpayable",
      "type": "constructor"
    },
    {
      "anonymous": false,
      "inputs": [
        {
          "indexed": false,
          "internalType": "address",
          "name": "buyer",
          "type": "address"
        },
        {
          "indexed": false,
          "internalType": "uint256",
          "name": "sellID",
          "type": "uint256"
        }
      ],
      "name": "CloseSmartOffer",
      "type": "event"
    },
    {
      "anonymous": false,
      "inputs": [
        {
          "indexed": true,
          "internalType": "address",
          "name": "buyer",
          "type": "address"
        },
        {
          "indexed": true,
          "internalType": "address",
          "name": "seller",
          "type": "address"
        },
        {
          "indexed": true,
          "internalType": "uint256",
          "name": "newLicenceId",
          "type": "uint256"
        }
      ],
      "name": "NewLicence",
      "type": "event"
    },
    {
      "anonymous": false,
      "inputs": [
        {
          "indexed": false,
          "internalType": "address",
          "name": "seller",
          "type": "address"
        },
        {
          "indexed": false,
          "internalType": "uint256",
          "name": "what",
          "type": "uint256"
        },
        {
          "indexed": false,
          "internalType": "uint256",
          "name": "price",
          "type": "uint256"
        },
        {
          "indexed": false,
          "internalType": "address",
          "name": "money",
          "type": "address"
        },
        {
          "indexed": false,
          "internalType": "uint256",
          "name": "sellID",
          "type": "uint256"
        }
      ],
      "name": "NewSmartOffer",
      "type": "event"
    },
    {
      "inputs": [],
      "name": "asset",
      "outputs": [
        {
          "internalType": "contract Asset",
          "name": "",
          "type": "address"
        }
      ],
      "stateMutability": "view",
      "type": "function"
    },
    {
      "inputs": [
        {
          "internalType": "uint256",
          "name": "_sellID",
          "type": "uint256"
        }
      ],
      "name": "buy",
      "outputs": [],
      "stateMutability": "nonpayable",
      "type": "function"
    },
    {
      "inputs": [
        {
          "internalType": "uint256",
          "name": "_sellID",
          "type": "uint256"
        }
      ],
      "name": "buyLicence",
      "outputs": [],
      "stateMutability": "nonpayable",
      "type": "function"
    },
    {
      "inputs": [
        {
          "internalType": "uint256",
          "name": "_sellID",
          "type": "uint256"
        }
      ],
      "name": "getSmartLicenceOffer",
      "outputs": [],
      "stateMutability": "view",
      "type": "function"
    },
    {
      "inputs": [
        {
          "internalType": "uint256",
          "name": "_sellID",
          "type": "uint256"
        }
      ],
      "name": "getSmartOffer",
      "outputs": [
        {
          "internalType": "address",
          "name": "seller",
          "type": "address"
        },
        {
          "internalType": "uint256",
          "name": "what",
          "type": "uint256"
        },
        {
          "internalType": "uint256",
          "name": "price",
          "type": "uint256"
        },
        {
          "internalType": "address",
          "name": "money",
          "type": "address"
        },
        {
          "internalType": "uint256",
          "name": "sellID",
          "type": "uint256"
        }
      ],
      "stateMutability": "view",
      "type": "function"
    },
    {
      "inputs": [
        {
          "internalType": "uint256",
          "name": "_what",
          "type": "uint256"
        },
        {
          "internalType": "uint256",
          "name": "_price",
          "type": "uint256"
        },
        {
          "internalType": "address",
          "name": "_money",
          "type": "address"
        }
      ],
      "name": "sell",
      "outputs": [
        {
          "internalType": "uint256",
          "name": "sellID",
          "type": "uint256"
        }
      ],
      "stateMutability": "nonpayable",
      "type": "function"
    },
    {
      "inputs": [
        {
          "internalType": "uint256",
          "name": "_what",
          "type": "uint256"
        },
        {
          "internalType": "uint256",
          "name": "_price",
          "type": "uint256"
        },
        {
          "internalType": "address",
          "name": "_money",
          "type": "address"
        },
        {
          "internalType": "uint64",
          "name": "_expiration",
          "type": "uint64"
        }
      ],
      "name": "sellLicence",
      "outputs": [
        {
          "internalType": "uint256",
          "name": "sellID",
          "type": "uint256"
        }
      ],
      "stateMutability": "nonpayable",
      "type": "function"
    }
  ],
  "bytecode": "0x608060405234801561001057600080fd5b50604051610e70380380610e7083398101604081905261002f91610054565b600280546001600160a01b0319166001600160a01b0392909216919091179055610082565b600060208284031215610065578081fd5b81516001600160a01b038116811461007b578182fd5b9392505050565b610ddf806100916000396000f3fe608060405234801561001057600080fd5b506004361061007d5760003560e01c80637f94b0ee1161005b5780637f94b0ee14610159578063d04c69831461016a578063d96a094a1461018b578063eca6617a1461019e57600080fd5b80630e51cce01461008257806327d20fd41461009757806338d52e0f1461012e575b600080fd5b610095610090366004610bd9565b6101b1565b005b6101146100a5366004610bd9565b600090815260016020818152604092839020835160c08101855281546001600160a01b039081168083529483015493820184905260028301549582018690526003830154166060820181905260048301546080830181905260059093015460a090920191909152929491939291565b604051610125959493929190610c90565b60405180910390f35b600254610141906001600160a01b031681565b6040516001600160a01b039091168152602001610125565b610095610167366004610bd9565b50565b61017d610178366004610c09565b610432565b604051908152602001610125565b610095610199366004610bd9565b61067a565b61017d6101ac366004610c3d565b6108c8565b600081815260016020818152604092839020835160c08101855281546001600160a01b03908116825293820154928101929092526002810154828501819052600382015490931660608301819052600480830154608085015260059092015460a08401529351636eb1769f60e11b815233918101829052306024820152919390929091829063dd62ed3e9060440160206040518083038186803b15801561025757600080fd5b505afa15801561026b573d6000803e3d6000fd5b505050506040513d601f19601f8201168201806040525081019061028f9190610bf1565b10156102b65760405162461bcd60e51b81526004016102ad90610d12565b60405180910390fd5b600254602084015160a08501516040516302881c5b60e31b815260048101929092526001600160a01b03858116602484015260448301919091526000921690631440e2d890606401602060405180830381600087803b15801561031857600080fd5b505af115801561032c573d6000803e3d6000fd5b505050506040513d601f19601f820116820180604052508101906103509190610bf1565b845160408087015190516323b872dd60e01b81526001600160a01b038781166004830152928316602482015260448101919091529192508316906323b872dd90606401602060405180830381600087803b1580156103ad57600080fd5b505af11580156103c1573d6000803e3d6000fd5b505050506040513d601f19601f820116820180604052508101906103e59190610bb2565b508084600001516001600160a01b0316846001600160a01b03167f0d82b6e9fb83b9090213bea433312694dac187ca7e8904d7cf98db678ef24df860405160405180910390a45050505050565b600254604051627eeac760e11b8152336004820152602481018590526000916001916001600160a01b039091169062fdd58e9060440160206040518083038186803b15801561048057600080fd5b505afa158015610494573d6000803e3d6000fd5b505050506040513d601f19601f820116820180604052508101906104b89190610bf1565b10156104d65760405162461bcd60e51b81526004016102ad90610cc3565b60025460405163e985e9c560e01b81523360048201523060248201526001600160a01b039091169063e985e9c59060440160206040518083038186803b15801561051f57600080fd5b505afa158015610533573d6000803e3d6000fd5b505050506040513d601f19601f820116820180604052508101906105579190610bb2565b15156001146105ce5760405162461bcd60e51b815260206004820152603e60248201527f54686973206d61726b657420686173206e6f20617070726f76616c20746f206f60448201527f7065726174652073656c6c657273206173736574732c20706c6561736520000060648201526084016102ad565b6000805490806105dd83610d78565b909155506000818152600160208190526040918290208054336001600160a01b031991821681178355928201899055600282018890556003820180549091166001600160a01b03881617905560048101849055915192935090917f2fdc76a715739c96c592178cd4b5931204f6f06e513ffba1cae79d071291a9a49161066a918890889088908890610c90565b60405180910390a1509392505050565b600081815260016020818152604092839020835160c08101855281546001600160a01b03908116825293820154928101929092526002810154828501819052600382015490931660608301819052600480830154608085015260059092015460a08401529351636eb1769f60e11b815233918101829052306024820152919390929091829063dd62ed3e9060440160206040518083038186803b15801561072057600080fd5b505afa158015610734573d6000803e3d6000fd5b505050506040513d601f19601f820116820180604052508101906107589190610bf1565b10156107765760405162461bcd60e51b81526004016102ad90610d12565b825160408085015190516323b872dd60e01b81526001600160a01b03858116600483015292831660248201526044810191909152908216906323b872dd90606401602060405180830381600087803b1580156107d157600080fd5b505af11580156107e5573d6000803e3d6000fd5b505050506040513d601f19601f820116820180604052508101906108099190610bb2565b506002548351602085015160405163170012f360e21b81526001600160a01b03928316600482015285831660248201526044810191909152911690635c004bcc90606401600060405180830381600087803b15801561086757600080fd5b505af115801561087b573d6000803e3d6000fd5b5050604080516001600160a01b0386168152602081018890527fdd4106386df82ef2d92d8191f5b8ec21b8c4e86792a7ffd8608b5de6a9a7d8b4935001905060405180910390a150505050565b600254604051627eeac760e11b8152336004820152602481018690526000916001916001600160a01b039091169062fdd58e9060440160206040518083038186803b15801561091657600080fd5b505afa15801561092a573d6000803e3d6000fd5b505050506040513d601f19601f8201168201806040525081019061094e9190610bf1565b101561096c5760405162461bcd60e51b81526004016102ad90610cc3565b600254604051630b65bfd760e31b8152600481018790526001600160a01b0390911690635b2dfeb89060240160206040518083038186803b1580156109b057600080fd5b505afa1580156109c4573d6000803e3d6000fd5b505050506040513d601f19601f820116820180604052508101906109e89190610bb2565b80610a705750600254604051632fd514cd60e11b8152600481018790523060248201526001600160a01b0390911690635faa299a9060440160206040518083038186803b158015610a3857600080fd5b505afa158015610a4c573d6000803e3d6000fd5b505050506040513d601f19601f82011682018060405250810190610a709190610bb2565b610aca5760405162461bcd60e51b815260206004820152602560248201527f4d61726b657420646f6573206e6f74206861766520706172656e7420616c6c6f60448201526477616e636560d81b60648201526084016102ad565b60008054600160ff1b9180610ade83610d78565b909155501760008181526001602081905260409091208054336001600160a01b0319918216178255918101889055600281018790556003810180549092166001600160a01b0387161790915560048101829055909150610b4867ffffffffffffffff841642610d60565b60058201556040517f2fdc76a715739c96c592178cd4b5931204f6f06e513ffba1cae79d071291a9a490610b859033908990899089908890610c90565b60405180910390a150949350505050565b80356001600160a01b0381168114610bad57600080fd5b919050565b600060208284031215610bc3578081fd5b81518015158114610bd2578182fd5b9392505050565b600060208284031215610bea578081fd5b5035919050565b600060208284031215610c02578081fd5b5051919050565b600080600060608486031215610c1d578182fd5b8335925060208401359150610c3460408501610b96565b90509250925092565b60008060008060808587031215610c52578081fd5b8435935060208501359250610c6960408601610b96565b9150606085013567ffffffffffffffff81168114610c85578182fd5b939692955090935050565b6001600160a01b039586168152602081019490945260408401929092529092166060820152608081019190915260a00190565b6020808252602f908201527f4661696c656420746f20637265617465206e65772073656c6c2c20696e73756660408201526e66756369656e742062616c616e636560881b606082015260800190565b6020808252602e908201527f496e73756666696369656e742062616c616e63652076696120616c6c6f77616e60408201526d636520746f20707572636861736560901b606082015260800190565b60008219821115610d7357610d73610d93565b500190565b6000600019821415610d8c57610d8c610d93565b5060010190565b634e487b7160e01b600052601160045260246000fdfea26469706673582212206004ca5e68b4cf2f41137b804d571b2f113eb5de56fa9b5368e939a3fb3386cc64736f6c63430008040033",
  "linkReferences": {},
  "deployedLinkReferences": {}
}