{
  "_format": "hh-sol-artifact-1",
  "contractName": "Asset",
  "sourceName": "contracts/marketplace/Asset.sol",
  "abi": [
    {
      "inputs": [
        {
          "internalType": "string",
          "name": "uri",
          "type": "string"
        }
      ],
      "stateMutability": "nonpayable",
      "type": "constructor"
    },
    {
      "anonymous": false,
      "inputs": [
        {
          "indexed": true,
          "internalType": "address",
          "name": "account",
          "type": "address"
        },
        {
          "indexed": true,
          "internalType": "address",
          "name": "operator",
          "type": "address"
        },
        {
          "indexed": false,
          "internalType": "bool",
          "name": "approved",
          "type": "bool"
        }
      ],
      "name": "ApprovalForAll",
      "type": "event"
    },
    {
      "anonymous": false,
      "inputs": [
        {
          "indexed": false,
          "internalType": "uint256[]",
          "name": "listOfIDs",
          "type": "uint256[]"
        }
      ],
      "name": "Divide",
      "type": "event"
    },
    {
      "anonymous": false,
      "inputs": [
        {
          "indexed": true,
          "internalType": "address",
          "name": "operator",
          "type": "address"
        },
        {
          "indexed": true,
          "internalType": "address",
          "name": "from",
          "type": "address"
        },
        {
          "indexed": true,
          "internalType": "address",
          "name": "to",
          "type": "address"
        },
        {
          "indexed": false,
          "internalType": "uint256[]",
          "name": "ids",
          "type": "uint256[]"
        },
        {
          "indexed": false,
          "internalType": "uint256[]",
          "name": "values",
          "type": "uint256[]"
        }
      ],
      "name": "TransferBatch",
      "type": "event"
    },
    {
      "anonymous": false,
      "inputs": [
        {
          "indexed": true,
          "internalType": "address",
          "name": "operator",
          "type": "address"
        },
        {
          "indexed": true,
          "internalType": "address",
          "name": "from",
          "type": "address"
        },
        {
          "indexed": true,
          "internalType": "address",
          "name": "to",
          "type": "address"
        },
        {
          "indexed": false,
          "internalType": "uint256",
          "name": "id",
          "type": "uint256"
        },
        {
          "indexed": false,
          "internalType": "uint256",
          "name": "value",
          "type": "uint256"
        }
      ],
      "name": "TransferSingle",
      "type": "event"
    },
    {
      "anonymous": false,
      "inputs": [
        {
          "indexed": false,
          "internalType": "string",
          "name": "value",
          "type": "string"
        },
        {
          "indexed": true,
          "internalType": "uint256",
          "name": "id",
          "type": "uint256"
        }
      ],
      "name": "URI",
      "type": "event"
    },
    {
      "inputs": [
        {
          "internalType": "address",
          "name": "_address",
          "type": "address"
        },
        {
          "internalType": "uint256",
          "name": "_id",
          "type": "uint256"
        }
      ],
      "name": "allow",
      "outputs": [],
      "stateMutability": "nonpayable",
      "type": "function"
    },
    {
      "inputs": [
        {
          "internalType": "address[]",
          "name": "_addresses",
          "type": "address[]"
        },
        {
          "internalType": "uint256",
          "name": "_id",
          "type": "uint256"
        }
      ],
      "name": "allowBatch",
      "outputs": [],
      "stateMutability": "nonpayable",
      "type": "function"
    },
    {
      "inputs": [
        {
          "internalType": "address",
          "name": "account",
          "type": "address"
        },
        {
          "internalType": "uint256",
          "name": "id",
          "type": "uint256"
        }
      ],
      "name": "balanceOf",
      "outputs": [
        {
          "internalType": "uint256",
          "name": "",
          "type": "uint256"
        }
      ],
      "stateMutability": "view",
      "type": "function"
    },
    {
      "inputs": [
        {
          "internalType": "address[]",
          "name": "accounts",
          "type": "address[]"
        },
        {
          "internalType": "uint256[]",
          "name": "ids",
          "type": "uint256[]"
        }
      ],
      "name": "balanceOfBatch",
      "outputs": [
        {
          "internalType": "uint256[]",
          "name": "",
          "type": "uint256[]"
        }
      ],
      "stateMutability": "view",
      "type": "function"
    },
    {
      "inputs": [
        {
          "internalType": "uint256",
          "name": "_pid",
          "type": "uint256"
        },
        {
          "internalType": "bool",
          "name": "_isPublic",
          "type": "bool"
        },
        {
          "internalType": "bool",
          "name": "_isDivisible",
          "type": "bool"
        },
        {
          "internalType": "uint256",
          "name": "_weight",
          "type": "uint256"
        }
      ],
      "name": "create",
      "outputs": [],
      "stateMutability": "nonpayable",
      "type": "function"
    },
    {
      "inputs": [
        {
          "internalType": "uint256",
          "name": "_pid",
          "type": "uint256"
        },
        {
          "internalType": "address",
          "name": "_to",
          "type": "address"
        },
        {
          "internalType": "uint256",
          "name": "_expirationDate",
          "type": "uint256"
        }
      ],
      "name": "createLicence",
      "outputs": [
        {
          "internalType": "uint256",
          "name": "",
          "type": "uint256"
        }
      ],
      "stateMutability": "nonpayable",
      "type": "function"
    },
    {
      "inputs": [
        {
          "internalType": "bool",
          "name": "_isPublic",
          "type": "bool"
        },
        {
          "internalType": "bool",
          "name": "_isDivisible",
          "type": "bool"
        },
        {
          "internalType": "uint256",
          "name": "_weight",
          "type": "uint256"
        }
      ],
      "name": "createRoot",
      "outputs": [],
      "stateMutability": "nonpayable",
      "type": "function"
    },
    {
      "inputs": [
        {
          "internalType": "address",
          "name": "_address",
          "type": "address"
        },
        {
          "internalType": "uint256",
          "name": "_id",
          "type": "uint256"
        }
      ],
      "name": "disallow",
      "outputs": [],
      "stateMutability": "nonpayable",
      "type": "function"
    },
    {
      "inputs": [
        {
          "internalType": "address[]",
          "name": "_addresses",
          "type": "address[]"
        },
        {
          "internalType": "uint256",
          "name": "_id",
          "type": "uint256"
        }
      ],
      "name": "disallowBatch",
      "outputs": [],
      "stateMutability": "nonpayable",
      "type": "function"
    },
    {
      "inputs": [
        {
          "internalType": "uint256",
          "name": "_id",
          "type": "uint256"
        }
      ],
      "name": "divisionOf",
      "outputs": [
        {
          "internalType": "uint256",
          "name": "divID",
          "type": "uint256"
        }
      ],
      "stateMutability": "view",
      "type": "function"
    },
    {
      "inputs": [
        {
          "internalType": "uint256",
          "name": "_id",
          "type": "uint256"
        }
      ],
      "name": "getExpiration",
      "outputs": [
        {
          "internalType": "uint256",
          "name": "",
          "type": "uint256"
        }
      ],
      "stateMutability": "view",
      "type": "function"
    },
    {
      "inputs": [
        {
          "internalType": "uint256",
          "name": "_id",
          "type": "uint256"
        }
      ],
      "name": "getParentID",
      "outputs": [
        {
          "internalType": "uint256",
          "name": "",
          "type": "uint256"
        }
      ],
      "stateMutability": "view",
      "type": "function"
    },
    {
      "inputs": [
        {
          "internalType": "uint256",
          "name": "_id",
          "type": "uint256"
        }
      ],
      "name": "getWeight",
      "outputs": [
        {
          "internalType": "uint256",
          "name": "weight",
          "type": "uint256"
        }
      ],
      "stateMutability": "view",
      "type": "function"
    },
    {
      "inputs": [
        {
          "internalType": "uint256",
          "name": "id",
          "type": "uint256"
        },
        {
          "internalType": "address",
          "name": "requester",
          "type": "address"
        }
      ],
      "name": "isAllowed",
      "outputs": [
        {
          "internalType": "bool",
          "name": "",
          "type": "bool"
        }
      ],
      "stateMutability": "view",
      "type": "function"
    },
    {
      "inputs": [
        {
          "internalType": "address",
          "name": "account",
          "type": "address"
        },
        {
          "internalType": "address",
          "name": "operator",
          "type": "address"
        }
      ],
      "name": "isApprovedForAll",
      "outputs": [
        {
          "internalType": "bool",
          "name": "",
          "type": "bool"
        }
      ],
      "stateMutability": "view",
      "type": "function"
    },
    {
      "inputs": [
        {
          "internalType": "uint256",
          "name": "_id",
          "type": "uint256"
        }
      ],
      "name": "isDivisible",
      "outputs": [
        {
          "internalType": "bool",
          "name": "_isDivisible",
          "type": "bool"
        }
      ],
      "stateMutability": "view",
      "type": "function"
    },
    {
      "inputs": [
        {
          "internalType": "uint256",
          "name": "_id",
          "type": "uint256"
        }
      ],
      "name": "isLicence",
      "outputs": [
        {
          "internalType": "bool",
          "name": "",
          "type": "bool"
        }
      ],
      "stateMutability": "pure",
      "type": "function"
    },
    {
      "inputs": [
        {
          "internalType": "uint256",
          "name": "id",
          "type": "uint256"
        }
      ],
      "name": "isPublic",
      "outputs": [
        {
          "internalType": "bool",
          "name": "",
          "type": "bool"
        }
      ],
      "stateMutability": "view",
      "type": "function"
    },
    {
      "inputs": [
        {
          "internalType": "uint256",
          "name": "_id",
          "type": "uint256"
        }
      ],
      "name": "licenceOf",
      "outputs": [
        {
          "internalType": "uint256",
          "name": "",
          "type": "uint256"
        }
      ],
      "stateMutability": "view",
      "type": "function"
    },
    {
      "inputs": [
        {
          "internalType": "uint256",
          "name": "_id",
          "type": "uint256"
        }
      ],
      "name": "makeDivisible",
      "outputs": [],
      "stateMutability": "nonpayable",
      "type": "function"
    },
    {
      "inputs": [
        {
          "internalType": "uint256",
          "name": "_id",
          "type": "uint256"
        }
      ],
      "name": "makeNotDivisible",
      "outputs": [],
      "stateMutability": "nonpayable",
      "type": "function"
    },
    {
      "inputs": [
        {
          "internalType": "uint256",
          "name": "_id",
          "type": "uint256"
        }
      ],
      "name": "makePrivate",
      "outputs": [],
      "stateMutability": "nonpayable",
      "type": "function"
    },
    {
      "inputs": [
        {
          "internalType": "uint256",
          "name": "_id",
          "type": "uint256"
        }
      ],
      "name": "makePublic",
      "outputs": [],
      "stateMutability": "nonpayable",
      "type": "function"
    },
    {
      "inputs": [
        {
          "internalType": "address",
          "name": "from",
          "type": "address"
        },
        {
          "internalType": "address",
          "name": "to",
          "type": "address"
        },
        {
          "internalType": "uint256[]",
          "name": "ids",
          "type": "uint256[]"
        },
        {
          "internalType": "uint256[]",
          "name": "amounts",
          "type": "uint256[]"
        },
        {
          "internalType": "bytes",
          "name": "data",
          "type": "bytes"
        }
      ],
      "name": "safeBatchTransferFrom",
      "outputs": [],
      "stateMutability": "nonpayable",
      "type": "function"
    },
    {
      "inputs": [
        {
          "internalType": "address",
          "name": "from",
          "type": "address"
        },
        {
          "internalType": "address",
          "name": "to",
          "type": "address"
        },
        {
          "internalType": "uint256",
          "name": "id",
          "type": "uint256"
        },
        {
          "internalType": "uint256",
          "name": "amount",
          "type": "uint256"
        },
        {
          "internalType": "bytes",
          "name": "data",
          "type": "bytes"
        }
      ],
      "name": "safeTransferFrom",
      "outputs": [],
      "stateMutability": "nonpayable",
      "type": "function"
    },
    {
      "inputs": [
        {
          "internalType": "address",
          "name": "_to",
          "type": "address"
        },
        {
          "internalType": "uint256",
          "name": "_id",
          "type": "uint256"
        }
      ],
      "name": "send",
      "outputs": [],
      "stateMutability": "nonpayable",
      "type": "function"
    },
    {
      "inputs": [
        {
          "internalType": "address",
          "name": "_from",
          "type": "address"
        },
        {
          "internalType": "address",
          "name": "_to",
          "type": "address"
        },
        {
          "internalType": "uint256",
          "name": "_id",
          "type": "uint256"
        }
      ],
      "name": "sendFrom",
      "outputs": [],
      "stateMutability": "nonpayable",
      "type": "function"
    },
    {
      "inputs": [
        {
          "internalType": "address",
          "name": "operator",
          "type": "address"
        },
        {
          "internalType": "bool",
          "name": "approved",
          "type": "bool"
        }
      ],
      "name": "setApprovalForAll",
      "outputs": [],
      "stateMutability": "nonpayable",
      "type": "function"
    },
    {
      "inputs": [
        {
          "internalType": "uint256",
          "name": "_id",
          "type": "uint256"
        },
        {
          "internalType": "uint256",
          "name": "_weight",
          "type": "uint256"
        }
      ],
      "name": "setWeight",
      "outputs": [],
      "stateMutability": "nonpayable",
      "type": "function"
    },
    {
      "inputs": [
        {
          "internalType": "uint256",
          "name": "_id",
          "type": "uint256"
        },
        {
          "internalType": "uint256",
          "name": "_stepNum",
          "type": "uint256"
        },
        {
          "internalType": "uint256",
          "name": "_stepSize",
          "type": "uint256"
        }
      ],
      "name": "stepDivideInto",
      "outputs": [
        {
          "internalType": "uint256[]",
          "name": "mintedIDs",
          "type": "uint256[]"
        }
      ],
      "stateMutability": "nonpayable",
      "type": "function"
    },
    {
      "inputs": [
        {
          "internalType": "bytes4",
          "name": "interfaceId",
          "type": "bytes4"
        }
      ],
      "name": "supportsInterface",
      "outputs": [
        {
          "internalType": "bool",
          "name": "",
          "type": "bool"
        }
      ],
      "stateMutability": "view",
      "type": "function"
    },
    {
      "inputs": [
        {
          "internalType": "uint256",
          "name": "",
          "type": "uint256"
        }
      ],
      "name": "uri",
      "outputs": [
        {
          "internalType": "string",
          "name": "",
          "type": "string"
        }
      ],
      "stateMutability": "view",
      "type": "function"
    }
  ],
  "bytecode": "0x60806040523480156200001157600080fd5b506040516200286f3803806200286f833981016040819052620000349162000107565b80620000408162000048565b505062000230565b80516200005d90600290602084019062000061565b5050565b8280546200006f90620001dd565b90600052602060002090601f016020900481019282620000935760008555620000de565b82601f10620000ae57805160ff1916838001178555620000de565b82800160010185558215620000de579182015b82811115620000de578251825591602001919060010190620000c1565b50620000ec929150620000f0565b5090565b5b80821115620000ec5760008155600101620000f1565b600060208083850312156200011a578182fd5b82516001600160401b038082111562000131578384fd5b818501915085601f83011262000145578384fd5b8151818111156200015a576200015a6200021a565b604051601f8201601f19908116603f011681019083821181831017156200018557620001856200021a565b8160405282815288868487010111156200019d578687fd5b8693505b82841015620001c05784840186015181850187015292850192620001a1565b82841115620001d157868684830101525b98975050505050505050565b600181811c90821680620001f257607f821691505b602082108114156200021457634e487b7160e01b600052602260045260246000fd5b50919050565b634e487b7160e01b600052604160045260246000fd5b61262f80620002406000396000f3fe608060405234801561001057600080fd5b50600436106101ef5760003560e01c8063784743061161010f578063b85902b6116100a2578063d851fdfd11610071578063d851fdfd146104a5578063e985e9c5146104c5578063ebad8d0214610501578063f242432a1461051457600080fd5b8063b85902b614610459578063cfba69ba1461046c578063d0679d341461047f578063d6bc05b91461049257600080fd5b8063a05b775f116100de578063a05b775f146103f9578063a22cb46514610419578063a8ab70f91461042c578063b3f5bc311461043f57600080fd5b806378474306146103a0578063864ad659146103c057806386e021f6146103d3578063878cbc8b146103e657600080fd5b80634e1273f4116101875780636783f102116101565780636783f102146103445780636c0490ee146103675780636c6f31f21461037a57806370f4616d1461038d57600080fd5b80634e1273f4146102cb5780635b2dfeb8146102eb5780635c004bcc1461031e5780635faa299a1461033157600080fd5b8063216e6037116101c3578063216e6037146102705780632eb2c2d61461028357806330b947701461029857806334fb5950146102b857600080fd5b8062fdd58e146101f457806301ffc9a71461021a5780630e89341c1461023d5780631440e2d81461025d575b600080fd5b610207610202366004611eae565b610527565b6040519081526020015b60405180910390f35b61022d610228366004611fa6565b6105be565b6040519015158152602001610211565b61025061024b366004611fe5565b610610565b6040516102119190612232565b61020761026b36600461201f565b6106a4565b61020761027e366004611fe5565b61074c565b610296610291366004611d41565b61077d565b005b6102076102a6366004611fe5565b60009081526005602052604090205490565b6102966102c6366004611fe5565b610a03565b6102de6102d9366004611ed7565b610a46565b60405161021191906121fa565b61022d6102f9366004611fe5565b600090815260046020908152604080832083805290915290205460ff16151560011490565b61029661032c366004611de7565b610ba8565b61022d61033f366004611ffd565b610bca565b61022d610352366004611fe5565b60009081526007602052604090205460ff1690565b610296610375366004611fe5565b610bfb565b610296610388366004611eae565b610c49565b61029661039b366004611fe5565b610ca3565b6102076103ae366004611fe5565b60009081526008602052604090205490565b6102966103ce366004612086565b610cf4565b6102966103e1366004611f38565b610d31565b6102966103f4366004611eae565b610db0565b610207610407366004611fe5565b60009081526006602052604090205490565b610296610427366004611e85565b610e07565b61029661043a366004612043565b610ede565b61022d61044d366004611fe5565b600160ff1b9081161490565b610296610467366004611f38565b610fb1565b6102de61047a3660046120a7565b61102a565b61029661048d366004611eae565b611416565b6102966104a0366004611f7b565b611437565b6102076104b3366004611fe5565b60009081526009602052604090205490565b61022d6104d3366004611d0f565b6001600160a01b03918216600090815260016020908152604080832093909416825291909152205460ff1690565b61029661050f366004611fe5565b6114a9565b610296610522366004611e22565b6114ef565b60006001600160a01b0383166105985760405162461bcd60e51b815260206004820152602b60248201527f455243313135353a2062616c616e636520717565727920666f7220746865207a60448201526a65726f206164647265737360a81b60648201526084015b60405180910390fd5b506000908152602081815260408083206001600160a01b03949094168352929052205490565b60006001600160e01b03198216636cdb3d1360e11b14806105ef57506001600160e01b031982166303a24d0760e21b145b8061060a57506301ffc9a760e01b6001600160e01b03198316145b92915050565b60606002805461061f9061248f565b80601f016020809104026020016040519081016040528092919081815260200182805461064b9061248f565b80156106985780601f1061066d57610100808354040283529160200191610698565b820191906000526020600020905b81548152906001019060200180831161067b57829003601f168201915b50505050509050919050565b6000836106d081600090815260046020908152604080832083805290915290205460ff16151560011490565b806106e057506106e08133610bca565b6106fc5760405162461bcd60e51b815260040161058f906123c8565b600061070661169f565b905061072485826001604051806020016040528060008152506116c0565b6000818152600560209081526040808320899055600690915290208490555b95945050505050565b6000600160ff1b80831614156107705760008281526005602052604090205461060a565b506000919050565b919050565b815183511461079e5760405162461bcd60e51b815260040161058f9061233f565b6001600160a01b0384166107c45760405162461bcd60e51b815260040161058f9061228d565b6001600160a01b0385163314806107e057506107e085336104d3565b6108475760405162461bcd60e51b815260206004820152603260248201527f455243313135353a207472616e736665722063616c6c6572206973206e6f74206044820152711bdddb995c881b9bdc88185c1c1c9bdd995960721b606482015260840161058f565b3360005b845181101561099557600085828151811061087657634e487b7160e01b600052603260045260246000fd5b6020026020010151905060008583815181106108a257634e487b7160e01b600052603260045260246000fd5b602090810291909101810151600084815280835260408082206001600160a01b038e1683529093529190912054909150818110156108f25760405162461bcd60e51b815260040161058f906122d2565b6108fc8282612478565b60008085815260200190815260200160002060008c6001600160a01b03166001600160a01b03168152602001908152602001600020819055508160008085815260200190815260200160002060008b6001600160a01b03166001600160a01b03168152602001908152602001600020600082825461097a9190612441565b925050819055505050508061098e906124f7565b905061084b565b50846001600160a01b0316866001600160a01b0316826001600160a01b03167f4a39dc06d4c0dbc64b70af90fd698a233a518aa5d07e595d983b8c0526c8f7fb87876040516109e592919061220d565b60405180910390a46109fb818787878787611787565b505050505050565b806000610a103383610527565b11610a2d5760405162461bcd60e51b815260040161058f9061231c565b506000908152600760205260409020805460ff19169055565b60608151835114610aab5760405162461bcd60e51b815260206004820152602960248201527f455243313135353a206163636f756e747320616e6420696473206c656e677468604482015268040dad2e6dac2e8c6d60bb1b606482015260840161058f565b6000835167ffffffffffffffff811115610ad557634e487b7160e01b600052604160045260246000fd5b604051908082528060200260200182016040528015610afe578160200160208202803683370190505b50905060005b8451811015610ba057610b65858281518110610b3057634e487b7160e01b600052603260045260246000fd5b6020026020010151858381518110610b5857634e487b7160e01b600052603260045260246000fd5b6020026020010151610527565b828281518110610b8557634e487b7160e01b600052603260045260246000fd5b6020908102919091010152610b99816124f7565b9050610b04565b509392505050565b610bc58383836001604051806020016040528060008152506114ef565b505050565b60008281526004602090815260408083206001600160a01b038516845290915290205460ff16151560011492915050565b806000610c083383610527565b11610c255760405162461bcd60e51b815260040161058f9061231c565b5060009081526004602090815260408083208380529091529020805460ff19169055565b806000610c563383610527565b11610c735760405162461bcd60e51b815260040161058f9061231c565b5060009081526004602090815260408083206001600160a01b03909416835292905220805460ff19166001179055565b806000610cb03383610527565b11610ccd5760405162461bcd60e51b815260040161058f9061231c565b5060009081526004602090815260408083208380529091529020805460ff19166001179055565b816000610d013383610527565b11610d1e5760405162461bcd60e51b815260040161058f9061231c565b5060009182526009602052604090912055565b806000610d3e3383610527565b11610d5b5760405162461bcd60e51b815260040161058f9061231c565b60005b8351811015610daa57610d98848281518110610d8a57634e487b7160e01b600052603260045260246000fd5b602002602001015184610c49565b80610da2816124f7565b915050610d5e565b50505050565b806000610dbd3383610527565b11610dda5760405162461bcd60e51b815260040161058f9061231c565b5060009081526004602090815260408083206001600160a01b03909416835292905220805460ff19169055565b336001600160a01b0383161415610e725760405162461bcd60e51b815260206004820152602960248201527f455243313135353a2073657474696e6720617070726f76616c20737461747573604482015268103337b91039b2b63360b91b606482015260840161058f565b3360008181526001602090815260408083206001600160a01b03871680855290835292819020805460ff191686151590811790915590519081529192917f17307eab39ab6107e8899845ad3d59bd9653f200f220920489ca2b5937696c31910160405180910390a35050565b83610f0881600090815260046020908152604080832083805290915290205460ff16151560011490565b80610f185750610f188133610bca565b610f345760405162461bcd60e51b815260040161058f906123c8565b6000610f3e6118f2565b9050610f5c33826001604051806020016040528060008152506116c0565b60008181526005602052604090208690558415610f8157610f7c81610ca3565b610f8a565b610f8a81610bfb565b8315610f9e57610f99816114a9565b610fa7565b610fa781610a03565b6109fb8184610cf4565b806000610fbe3383610527565b11610fdb5760405162461bcd60e51b815260040161058f9061231c565b60005b8351811015610daa5761101884828151811061100a57634e487b7160e01b600052603260045260246000fd5b602002602001015184610db0565b80611022816124f7565b915050610fde565b60608360006110393383610527565b116110565760405162461bcd60e51b815260040161058f9061231c565b60008581526009602052604090205461106f8585612459565b11156110c95760405162461bcd60e51b8152602060048201526024808201527f52657175697265642077656967687420657863656564732061737365742077656044820152631a59da1d60e21b606482015260840161058f565b60008581526007602052604090205460ff16151560011461112c5760405162461bcd60e51b815260206004820152601f60248201527f4173736574206861732064697669736962696c6974792064697361626c656400604482015260640161058f565b60008467ffffffffffffffff81111561115557634e487b7160e01b600052604160045260246000fd5b60405190808252806020026020018201604052801561117e578160200160208202803683370190505b50905060008567ffffffffffffffff8111156111aa57634e487b7160e01b600052604160045260246000fd5b6040519080825280602002602001820160405280156111d3578160200160208202803683370190505b50905060005b86811015611226576111e96118f2565b83828151811061120957634e487b7160e01b600052603260045260246000fd5b60209081029190910101528061121e816124f7565b9150506111d9565b5060005b8681101561127157600182828151811061125457634e487b7160e01b600052603260045260246000fd5b602090810291909101015280611269816124f7565b91505061122a565b5061128d3383836040518060200160405280600081525061190d565b60005b868110156112ea5787600860008584815181106112bd57634e487b7160e01b600052603260045260246000fd5b602002602001015181526020019081526020016000208190555080806112e2906124f7565b915050611290565b5060005b8681101561134857856009600085848151811061131b57634e487b7160e01b600052603260045260246000fd5b60200260200101518152602001908152602001600020819055508080611340906124f7565b9150506112ee565b506113538686612459565b60008881526009602052604081208054909190611371908490612478565b90915550600090505b868110156113d45787600560008584815181106113a757634e487b7160e01b600052603260045260246000fd5b602002602001015181526020019081526020016000208190555080806113cc906124f7565b91505061137a565b507f56f1e48a1a51839d78a5ae176eeebb68f2a31fbcf1999266289606f8d4f06f008260405161140491906121fa565b60405180910390a15095945050505050565b6114333383836001604051806020016040528060008152506114ef565b5050565b60006114416118f2565b905061145f33826001604051806020016040528060008152506116c0565b83156114735761146e81610ca3565b61147c565b61147c81610bfb565b82156114905761148b816114a9565b611499565b61149981610a03565b8115610daa57610daa8183610cf4565b8060006114b63383610527565b116114d35760405162461bcd60e51b815260040161058f9061231c565b506000908152600760205260409020805460ff19166001179055565b6001600160a01b0384166115155760405162461bcd60e51b815260040161058f9061228d565b6001600160a01b038516331480611531575061153185336104d3565b61158f5760405162461bcd60e51b815260206004820152602960248201527f455243313135353a2063616c6c6572206973206e6f74206f776e6572206e6f7260448201526808185c1c1c9bdd995960ba1b606482015260840161058f565b336115af81878761159f88611a74565b6115a888611a74565b5050505050565b6000848152602081815260408083206001600160a01b038a168452909152902054838110156115f05760405162461bcd60e51b815260040161058f906122d2565b6115fa8482612478565b6000868152602081815260408083206001600160a01b038c81168552925280832093909355881681529081208054869290611636908490612441565b909155505060408051868152602081018690526001600160a01b03808916928a821692918616917fc3d58168c5ae7397731d063d5bbf3d657854427343f4c083240f7aacaa2d0f62910160405180910390a4611696828888888888611acd565b50505050505050565b6000600160ff1b6003600081546116b5906124f7565b918290555017919050565b6001600160a01b0384166116e65760405162461bcd60e51b815260040161058f90612387565b336116f78160008761159f88611a74565b6000848152602081815260408083206001600160a01b038916845290915281208054859290611727908490612441565b909155505060408051858152602081018590526001600160a01b0380881692600092918516917fc3d58168c5ae7397731d063d5bbf3d657854427343f4c083240f7aacaa2d0f62910160405180910390a46115a881600087878787611acd565b6001600160a01b0384163b156109fb5760405163bc197c8160e01b81526001600160a01b0385169063bc197c81906117cb9089908990889088908890600401612157565b602060405180830381600087803b1580156117e557600080fd5b505af1925050508015611815575060408051601f3d908101601f1916820190925261181291810190611fc9565b60015b6118c25761182161253e565b806308c379a0141561185b5750611836612556565b80611841575061185d565b8060405162461bcd60e51b815260040161058f9190612232565b505b60405162461bcd60e51b815260206004820152603460248201527f455243313135353a207472616e7366657220746f206e6f6e20455243313135356044820152732932b1b2b4bb32b91034b6b83632b6b2b73a32b960611b606482015260840161058f565b6001600160e01b0319811663bc197c8160e01b146116965760405162461bcd60e51b815260040161058f90612245565b6000600360008154611903906124f7565b9182905550919050565b6001600160a01b0384166119335760405162461bcd60e51b815260040161058f90612387565b81518351146119545760405162461bcd60e51b815260040161058f9061233f565b3360005b8451811015611a0c5783818151811061198157634e487b7160e01b600052603260045260246000fd5b60200260200101516000808784815181106119ac57634e487b7160e01b600052603260045260246000fd5b602002602001015181526020019081526020016000206000886001600160a01b03166001600160a01b0316815260200190815260200160002060008282546119f49190612441565b90915550819050611a04816124f7565b915050611958565b50846001600160a01b031660006001600160a01b0316826001600160a01b03167f4a39dc06d4c0dbc64b70af90fd698a233a518aa5d07e595d983b8c0526c8f7fb8787604051611a5d92919061220d565b60405180910390a46115a881600087878787611787565b60408051600180825281830190925260609160009190602080830190803683370190505090508281600081518110611abc57634e487b7160e01b600052603260045260246000fd5b602090810291909101015292915050565b6001600160a01b0384163b156109fb5760405163f23a6e6160e01b81526001600160a01b0385169063f23a6e6190611b1190899089908890889088906004016121b5565b602060405180830381600087803b158015611b2b57600080fd5b505af1925050508015611b5b575060408051601f3d908101601f19168201909252611b5891810190611fc9565b60015b611b675761182161253e565b6001600160e01b0319811663f23a6e6160e01b146116965760405162461bcd60e51b815260040161058f90612245565b80356001600160a01b038116811461077857600080fd5b600082601f830112611bbe578081fd5b81356020611bcb8261241d565b604051611bd882826124ca565b8381528281019150858301600585901b87018401881015611bf7578586fd5b855b85811015611c1c57611c0a82611b97565b84529284019290840190600101611bf9565b5090979650505050505050565b600082601f830112611c39578081fd5b81356020611c468261241d565b604051611c5382826124ca565b8381528281019150858301600585901b87018401881015611c72578586fd5b855b85811015611c1c57813584529284019290840190600101611c74565b8035801515811461077857600080fd5b600082601f830112611cb0578081fd5b813567ffffffffffffffff811115611cca57611cca612528565b604051611ce1601f8301601f1916602001826124ca565b818152846020838601011115611cf5578283fd5b816020850160208301379081016020019190915292915050565b60008060408385031215611d21578182fd5b611d2a83611b97565b9150611d3860208401611b97565b90509250929050565b600080600080600060a08688031215611d58578081fd5b611d6186611b97565b9450611d6f60208701611b97565b9350604086013567ffffffffffffffff80821115611d8b578283fd5b611d9789838a01611c29565b94506060880135915080821115611dac578283fd5b611db889838a01611c29565b93506080880135915080821115611dcd578283fd5b50611dda88828901611ca0565b9150509295509295909350565b600080600060608486031215611dfb578283fd5b611e0484611b97565b9250611e1260208501611b97565b9150604084013590509250925092565b600080600080600060a08688031215611e39578081fd5b611e4286611b97565b9450611e5060208701611b97565b93506040860135925060608601359150608086013567ffffffffffffffff811115611e79578182fd5b611dda88828901611ca0565b60008060408385031215611e97578182fd5b611ea083611b97565b9150611d3860208401611c90565b60008060408385031215611ec0578182fd5b611ec983611b97565b946020939093013593505050565b60008060408385031215611ee9578182fd5b823567ffffffffffffffff80821115611f00578384fd5b611f0c86838701611bae565b93506020850135915080821115611f21578283fd5b50611f2e85828601611c29565b9150509250929050565b60008060408385031215611f4a578182fd5b823567ffffffffffffffff811115611f60578283fd5b611f6c85828601611bae565b95602094909401359450505050565b600080600060608486031215611f8f578283fd5b611f9884611c90565b9250611e1260208501611c90565b600060208284031215611fb7578081fd5b8135611fc2816125e0565b9392505050565b600060208284031215611fda578081fd5b8151611fc2816125e0565b600060208284031215611ff6578081fd5b5035919050565b6000806040838503121561200f578182fd5b82359150611d3860208401611b97565b600080600060608486031215612033578081fd5b83359250611e1260208501611b97565b60008060008060808587031215612058578182fd5b8435935061206860208601611c90565b925061207660408601611c90565b9396929550929360600135925050565b60008060408385031215612098578182fd5b50508035926020909101359150565b6000806000606084860312156120bb578081fd5b505081359360208301359350604090920135919050565b6000815180845260208085019450808401835b83811015612101578151875295820195908201906001016120e5565b509495945050505050565b60008151808452815b8181101561213157602081850181015186830182015201612115565b818111156121425782602083870101525b50601f01601f19169290920160200192915050565b6001600160a01b0386811682528516602082015260a060408201819052600090612183908301866120d2565b828103606084015261219581866120d2565b905082810360808401526121a9818561210c565b98975050505050505050565b6001600160a01b03868116825285166020820152604081018490526060810183905260a0608082018190526000906121ef9083018461210c565b979650505050505050565b602081526000611fc260208301846120d2565b60408152600061222060408301856120d2565b828103602084015261074381856120d2565b602081526000611fc2602083018461210c565b60208082526028908201527f455243313135353a204552433131353552656365697665722072656a656374656040820152676420746f6b656e7360c01b606082015260800190565b60208082526025908201527f455243313135353a207472616e7366657220746f20746865207a65726f206164604082015264647265737360d81b606082015260800190565b6020808252602a908201527f455243313135353a20696e73756666696369656e742062616c616e636520666f60408201526939103a3930b739b332b960b11b606082015260800190565b6020808252600990820152682737ba1037bbb732b960b91b604082015260600190565b60208082526028908201527f455243313135353a2069647320616e6420616d6f756e7473206c656e677468206040820152670dad2e6dac2e8c6d60c31b606082015260800190565b60208082526021908201527f455243313135353a206d696e7420746f20746865207a65726f206164647265736040820152607360f81b606082015260800190565b60208082526035908201527f43616e206e6f7420637265617465206e65772061737365742c206261736564206040820152741bdb881cd95b1958dd195908185cc81c185c995b9d605a1b606082015260800190565b600067ffffffffffffffff82111561243757612437612528565b5060051b60200190565b6000821982111561245457612454612512565b500190565b600081600019048311821515161561247357612473612512565b500290565b60008282101561248a5761248a612512565b500390565b600181811c908216806124a357607f821691505b602082108114156124c457634e487b7160e01b600052602260045260246000fd5b50919050565b601f8201601f1916810167ffffffffffffffff811182821017156124f0576124f0612528565b6040525050565b600060001982141561250b5761250b612512565b5060010190565b634e487b7160e01b600052601160045260246000fd5b634e487b7160e01b600052604160045260246000fd5b600060033d111561255357600481823e5160e01c5b90565b600060443d10156125645790565b6040516003193d81016004833e81513d67ffffffffffffffff816024840111818411171561259457505050505090565b82850191508151818111156125ac5750505050505090565b843d87010160208285010111156125c65750505050505090565b6125d5602082860101876124ca565b509095945050505050565b6001600160e01b0319811681146125f657600080fd5b5056fea2646970667358221220da17ff6a0200fc5a8d804e01331dcd178ca24e71171ddf5619ffcb3c6a0b1c3d64736f6c63430008040033",
  "linkReferences": {},
  "deployedLinkReferences": {}
}